:020000041000EA
:1000000000B5324B212058609868022188439860DF
:10001000D860186158612E4B002199600221596106
:100020000121F02299502B49196001219960352056
:1000300000F044F80222904214D00621196600F024
:1000400034F8196E01211966002018661A6600F04E
:100050002CF8196E196E196E052000F02FF8012189
:100060000842F9D1002199601B49196000215960AB
:100070001A491B48016001219960EB211966A021F2
:10008000196600F012F800219960164914480160C1
:100090000121996001BC002800D000471248134993
:1000A000086003C880F30888084703B5996A0420EC
:1000B0000142FBD001200142F8D103BD02B5186610
:1000C0001866FFF7F2FF186E186E02BD00000240BE
:1000D000000000180000070000035F00212200005C
:1000E000F4000018222000A00001001008ED00E03C
:1000F00000000000000000000000000074B24E7A12
:1001000000200420F7010010C3010010C5010010F9
:10011000C1010010C1010010C1010010C101001097
:10012000C1010010C1010010C1010010C701001081
:10013000C1010010C1010010C9010010CB01001065
:10014000CD010010CD010010CD010010CD01001037
:10015000CD010010CD010010CD010010CD01001027
:10016000CD010010CD010010CD010010CD01001017
:10017000CD010010CD010010CD010010CD01001007
:10018000CD010010CD010010CD010010CD010010F7
:10019000CD010010CD010010CD010010CD010010E7
:1001A000CD010010CD010010CD010010CD010010D7
:1001B000CD010010CD010010CD010010CD010010C7
:1001C00000BE00BE00BE00BE00BE00BEEFF3058054
:1001D000103800BEF2EB8871CC990010F89900102D
:1001E0003802001090A31AE71E481F49086006C88D
:1001F00081F3088810471D480068002801D019487D
:10020000F3E70DA40ECC002902D000F012F8F9E7B4
:100210001749184A002000E001C19142FCD116495B
:100220008847164988471649884700BEFDE701C937
:1002300001C29A42FBD37047F8990010C000002019
:10024000441000207CA900100000042000000420BD
:100250007CA9001000100420001004200000000001
:10026000704700000000000008ED00E0000000D032
:1002700044100020C0240220253D0010D9040010A5
:100280001D3D0010F8B5C0460448054B10B583422B
:1002900003D0044B002B00D0984710BD4410002021
:1002A000441000200000000006480749091A8B107E
:1002B000C90FC91810B5491003D0044B002B00D04A
:1002C000984710BD4410002044100020000000009A
:1002D00010B5074C2378002B09D1FFF7D5FF054B4C
:1002E000002B02D0044800E000BF0123237010BDA2
:1002F0001013002000000000A4920010054B10B560
:10030000002B03D00449054800E000BFFFF7CCFFF5
:1003100010BDC0460000000014130020A49200107D
:10032000F0B5D0250124164E164F87B02D060121B9
:100330006B6830685B09234001936B6849429B09F5
:10034000234002936B68DB09234003936B681B0A0D
:10035000234004936B685B0A2340059304F034FF49
:1003600001A900230022386804F0E4FC00230022E5
:100370000021306804F0DEFC642005F0B5FBD6E710
:100380007024022068240220F0B5D6464F46464627
:10039000494BC0B59A460027484C86B0012201A9B6
:1003A0002068524204F082FE01000128F6D1019B30
:1003B0000122012B72D003239946043B9846022662
:1003C00000230020029D012D04D08046190010005A
:1003D00032004E46039B012B57D0049D059B012DF7
:1003E00043D0012B45D0002956D1002F5FDD344B7F
:1003F00003269846F01B02F043F8324902F039F820
:10040000414602F01FF802F05DF8010032312AD4B3
:10041000412900DD41213222121A22D4412A00DD75
:100420004122D02380201B06C0009861802000015B
:1004300058618020400158618020234F80019861DD
:100440003B6822484B401B041B0C03603F681304AD
:100450007B401B0C1B040360504603F071FE370009
:100460009CE70022DDE70021D5E70131012B02D115
:1004700032001000013101F02BFC060002F000F800
:10048000134901F0F6FF8046B4E7049D059B013156
:10049000012DEAD0012BECD04046ECE7032040428E
:1004A0009146804600260221023A01308AE703265F
:1004B000084B764298469DE7A892001068240220D7
:1004C0000000584200005C4298000540981005402A
:1004D00000009041000058C2F0B54746CE4680B5B6
:1004E00083B003F051FD1423D02798460126344DE4
:1004F0003F06A84410CD200000F0A4F83300A3402C
:10050000002201212000BB6200F088F84545F1D1AE
:100510000A2000F097F88023DB007B620B2000F0BC
:1005200091F880231B017B620C2000F08BF8802364
:100530005B017B620D2000F085F880239B017B62CC
:1005400004210E2000F050F81E4B9C279846FF23F4
:10055000994643464A46DA5132001B4D1B4C2B68E4
:1005600004219A4322600F2000F03EF843464A4699
:10057000DA5132002B6814219A43226001200022B4
:1005800004F086FB124B00241860012004F0BEFC2E
:100590008022104B10491860520000230F4801942C
:1005A000009605F089F9802200230D4952000D487C
:1005B0000194009605F080F905F090F9FEE7C04639
:1005C000CC940010000005408C0005408C100540C4
:1005D0006824022070240220E492001021030010FD
:1005E000F092001089030010094A83009A1810B590
:1005F00014684022544080322240064CC000A44679
:1006000063441A60044B9C466044416010BDC04680
:1006100004C0014004D0014000400140074B80006D
:10062000C3181B68C90092000A435A400C231340A8
:10063000034A9446604403607047C04604C00140CA
:1006400004D001400123D0228340120693629361BB
:10065000094A83009A1811684022514080320A40AA
:100660000649C0008C4663441A60054B9C4605232E
:10067000604443607047C04604C0014004D001405C
:10068000004001408023DB051868000F7047C0461A
:100690000FB400B5084883B003F0CAFC049B002BDC
:1006A00007D005A91800019103F01EFB034803F0D1
:1006B000BFFC012003F030FBFC9200100C930010F3
:1006C00010B50148FFF7E4FF1093001070B5EFF389
:1006D000108C72B60D4D2B68002BFCD0BFF35F8FD2
:1006E0000724CB08C618C05C01230C40A3401C00A3
:1006F0000440034207D118433070BFF35F8F2C6072
:100700008CF3108870BD1000FFF7C2FF2C0100D0E1
:10071000F8B54746CE46884680B5EFF3108C72B6E2
:10072000214D2C68002CFCD0BFF35F8F9A422CD84F
:10073000D4080727055D061901241740BC402C4248
:100740001FD007210127894609E0D408055D061955
:100750004C4639001440A1400C00294211D001320E
:100760009342F2D201204042BFF35F8F00220E4B32
:100770001A608CF3108800280FDBC0BCB946B04665
:10078000F8BD254310003570EEE7BFF35F8F0023FF
:100790002B608CF31088012040424346002BECD0A4
:1007A0000898FFF775FFC0462C0100D0044A107866
:1007B000431CDBB2172B00D9102313707047C046BF
:1007C000580F002010B5064B064C82B00100009374
:1007D00018221F232000FFF79BFF02B010BDC04668
:1007E00020930010681B00200021044B044ABFF333
:1007F0005F8F02C39342FAD17047C046000100D018
:10080000800100D0054B064A1360064A136053600E
:100810009360D360136153619361704780808080DF
:1008200000E400E004E400E01F2318401E3B834086
:10083000002905D0C021044A490053501360704775
:10084000802201498B50FAE700E100E0012282405A
:10085000034B1B6813405A1E9341D8B27047C046E1
:1008600000E100E001238340014A13607047C04665
:1008700000E200E0064B10309B688000C358054A38
:1008800000209B1A2F229A424041C0B27047C046B6
:1008900000ED00E05C0F002070B50D00EFF3108656
:1008A00072B60F4A1368002BFCD0BFF35F8F0D4B5D
:1008B00010309B6884001B590B4A934203D09D4221
:1008C00001D001F027F9074B9B681D51BFF35F8FE3
:1008D000BFF35F8F0022024B1A6086F3108870BD51
:1008E000240100D000ED00E0CD010010F0B5574626
:1008F0004E46DE464546E0B585B00600009117003D
:10090000EFF3108B72B66A4A1368002BFCD0BFF36A
:100910005F8F0025674B5D579A46002D00DAA9E0EE
:100920006B00654C01935B199B009846A146C1443E
:100930004B4652469B7910361370604BB6009B684D
:1009400099590B1B2F2B33D95D4B994200D0ACE04A
:10095000019B42469C465B4B6544AD0063535A4B3A
:100960000232A218043B9B1A1B05584A5B0D6519FD
:1009700013436B80564B0121AB80FF23AB71009B6F
:10098000EF71AB604B460B4319004C4B9B68995180
:10099000BFF35F8FBFF35F8F0022454B1A608BF36D
:1009A000108805B0F0BCBB46B246A946A046F0BDD3
:1009B00001200A008243D3798C46BB4231D8454698
:1009C000130044491B1B5B415943090D3D4B6353C5
:1009D0003D4B02356519043B5B1B1B053B4D5B0D15
:1009E0002B43AA464D466B800425AC465546E04451
:1009F000131F44441B1B1B055B0D1D434B46997184
:100A000000999D8099604946DF71334B0143136023
:100A1000BBE75800C01880002018C179B9422FD90F
:100A200002000623D356002BF3DA02932B4B6146C8
:100A30000393131D9A4604235B429C46E1445046AF
:100A40004B461B1A1B055B0D9C46204B9571984627
:100A50006346404603439380019B5A199200039BCF
:100A6000A418A380029B1C4AA371009B2260E7711B
:100A7000A3608AE701F04EF8002553465D574FE723
:100A8000908802934005131D9A46031561469C46C3
:100A90004046D444634604302018181AE023000569
:100AA000400D1B0218430390C5E701F033F84FE7F0
:100AB000240100D0B82402205C0F002000ED00E0EB
:100AC000CD01001000A1FFFF8C0F002000E0FFFF10
:100AD00001BDFFFFAAAA00000148804701BD000038
:100AE000F0B5DE4657464E464546E0B50C0083B0AD
:100AF000EFF3108872B6634A1368002BFCD0BFF383
:100B00005F8F614B61499A68030010339F00D5598C
:100B100000938D4243D0A54254D05D4EAA1B2F2A8C
:100B20003DD85C4B9C461B689A4601231A009946A7
:100B30008240534613401F2201934B46024093408C
:100B40009A468022634650469850BFF35F8FEFF37A
:100B500005839B46002B37D0009B5B4501D000F0FE
:100B6000D9FF2A004B469A439068844208D177E027
:100B70004B005B189B00F3189868844236D01A002B
:100B8000062151560029F3DA844255D0019B002BEF
:100B900027D0C02251463F4B5200995019603A4B22
:100BA0009B68DD51BFF35F8FBFF35F8F0022354B32
:100BB0001A6088F3108803B0F0BCBB46B246A94661
:100BC000A046F0BD0D00EAE72A004B469A43906824
:100BD0008442D5D106201056130000280ADA0D00F1
:100BE00032E0802351462B4AD150D8E706201856D0
:100BF000002822DB42001118890074188946A16878
:100C00009960E179D971062161569971002925DB36
:100C1000A488F11A640524154C440919E024090537
:100C2000490D24022143998013181B4A9B00117817
:100C3000F31899711070A9E713005946002914D1CF
:100C4000FF3191711549918013490A789A71144ABC
:100C50009B1B5B415A43120D0A7097E71149E2E76B
:100C60000620105613000028C4DA0F4A0F49D21A82
:100C7000083A5002400D014399800D4952080A4339
:100C8000DA8083E7240100D000ED00E0CD01001000
:100C90005C0F002000E100E0B824022001BDFFFF4E
:100CA000AAAA000001BD0000960F002000F0FFFF7F
:100CB00000F8FFFF10B58308040003202040FF2444
:100CC000054AC0009446844081409B0063441A68F2
:100CD000A2430A431A6010BD00E400E070B501248D
:100CE0000443EFF30581EFF3108C72B6214A1368C9
:100CF000002BFCD0BFF35F8F1F4B05001F4AED1A7E
:100D00006D416A43120D1E4D8900AE6852B276588D
:100D1000A6421CD00621595691421CD01221595688
:100D2000914222D01E215956914220D02A21595653
:100D30000324914210D0134B19781A708171BFF3BC
:100D40005F8F00220B4B1A608CF3108870BDAB686C
:100D50000D4C5C50EFE700246100091989005B1815
:100D6000FF21997109499980E5E70124F4E70224FC
:100D7000F2E7C046240100D05C0F0020AAAA0000C0
:100D800000ED00E0B8240220CD01001001BDFFFFFE
:100D900010B5084B084C82B00100009300220523D7
:100DA0002000FFF7B5FC002801DB1F23181A02B052
:100DB00010BDC0463C930010BC240220024B9C4650
:100DC000614489000160704740000034F8B5124C5E
:100DD000124DAC4212D20126002776422368002B26
:100DE0000DD0FFF7E3FC01002000FFF7E7FF66608E
:100DF0002772BFF35F8F0C34AC42EFD3F8BDFFF71F
:100E0000D5FC01002000FFF7D9FF6660BFF35F8FBC
:100E10000834AC42E2D3F1E7341000204410002043
:100E200010B50400FFF7C2FC01002000FFF7C6FF69
:100E300001235B426360BFF35F8F10BD10B50400F8
:100E40000120FFF7BFFC034BC3189B002360BFF3D7
:100E50005F8F10BD40000034034B9C466144890005
:100E60000160BFF35F8F704740000034F0B5DE468D
:100E700057464E464546E0B583B0EFF3058203235F
:100E80001340B54A990052580091904601229A4069
:100E90009346B24B1A60B24B01935B46B148436331
:100EA000434608229B5E9946002B3ADA43469B88CC
:100EB0001BB2002B00DB9DE043469B79002B00D04A
:100EC000E1E0434608241C5F002C20DB43465A69BE
:100ED00063001B19DB00D3189D68DC686B1C00D114
:100EE00003E1A048009984466144826A0B69AE1A06
:100EF0009B1A9E4213D35A46036A1A420FD099484E
:100F000000F03AFB8C4202DCC7D18542C5D940BF14
:100F100003B0F0BCBB46B246A946A046F0BD0D6189
:100F2000EDE7424652695B0092464B44DB009A442F
:100F300053469E68DF6800F01FFB8F42B6DC00D18D
:100F4000F8E0002F00DAD9E05246534654691B6995
:100F5000019A934200D1CCE0414652460820085EF7
:100F60005288000421001043984704000D0023001C
:100F70002B4300D1C2E0002D00DBDFE03000390060
:100F8000001BA94153469860D96000229A5E002A4E
:100F900000DA8BE743465D6953009C18E4002C1986
:100FA000A768E4688C4200DD80E702D1874200D95F
:100FB0007CE74646328108360DE08C4200D1C6E01F
:100FC0001E000023F25E002A0ADB53009C18E40096
:100FD0002C19A768E4689B18DB00EB188C42ECDD49
:100FE00053461A804B46338043469B881BB2002BE6
:100FF00000DA61E743461A69EFF3108172B61368AD
:10100000002BFCD0BFF35F8F43469E8801234246EE
:101010005B42938036B21369BFF35F8F00221A6080
:1010200081F31088002E00DA46E743465D690833F5
:1010300042469C467700BF19FF00EF19BB68604627
:1010400098460823D15E9246FC68002907DA0EE034
:10105000A24246D018000023C15E002906DB4B00E7
:101060005B18DB00EB18DA68A242F1DD524606801D
:101070000023FE5E3980002EDCDA904643469B79E1
:10108000002B00D11DE7002342469371434646469C
:101090000821595E08364B1C00D138E7474689467F
:1010A000556902E006004B1C18D04B005B18DB00B2
:1010B000E8180A008C46E95E43881BB2002BF1DA7F
:1010C00001235B42DC178360C4604A4503D0318052
:1010D0003B8903803A81E1464B1CE6D1B8464C4639
:1010E000F2E69A684245B5D9C0E7631C00D0F8E63D
:1010F00005E7200023699847002825D1534642463A
:101100001B8813811269EFF3108372B611680029EE
:10111000FCD0BFF35F8F4246514652880A80424658
:10112000494651801269BFF35F8F0021116083F33C
:101130001088BBE6864200D803E7B7E6094800F00E
:101140001BFA001969411DE7656824680FE78742AB
:1011500000D835E744E7C046E01F00203C7005405A
:101160006D0E001000400540074810B50268EFF30F
:10117000108172B61368002BFCD0BFF35F8F03F0B1
:1011800045FA0020002110BD9823002070B52E4C98
:101190002569002D04D00A212C48FFF70FFE70BDF1
:1011A0002B4E0321300000F0DDF9E660FFF7FEFA78
:1011B000284B03229C46D02322701B061B6801216A
:1011C0006370254B6044A3600F23800020610220E0
:1011D000638063694942A1801980023119864731D1
:1011E0001D83585218315A5275325C39995218324F
:1011F0000131995218320131995218320131995204
:10120000083518329D520231183299521832013184
:1012100099521832013199521832013199521832CB
:10122000013199521832013199520C4B0C49DC6052
:1012300001303562FFF730FB01210320FFF7F4FA9C
:10124000084B1D60A7E7C046A40F0020982300208C
:101250000040054040000034FFFF1000E01F002068
:101260006D0E00103860054000487047A40F002044
:10127000F8B51F0008AB1B7804001600002B08D13E
:1012800000F082F932003B00121A8B41002B00DA89
:1012900053E02269EFF3108072B61368002BFCD084
:1012A000BFF35F8F0223E15E63694A005218D200E8
:1012B0009B18002937DB1A8862802269BFF35F8F91
:1012C0000025156080F31088069A9E60DF601A6121
:1012D000079A5A615A8801325204520C101C002A93
:1012E0001FD082B25880080410432669EFF310879C
:1012F00072B63268002AFCD0BFF35F8FA2881A80D2
:10130000A1802369BFF35F8F00221A6087F31088E2
:101310000B4923788C4601329A40E36863441A6093
:10132000F8BD0120DDE72369BFF35F8F00221A605B
:1013300080F3108801204042F2E70020F0E7C04629
:101340003C20000070B501000469EFF3108C72B608
:1013500020680028FCD0BFF35F8F02200D5E4C692F
:1013600068004019C0002418002D37DB2088488011
:101370000869BFF35F8F002606608CF31088E36076
:1013800063880498013320615B0405985B0CA260BC
:1013900060611A1C002B1FD093B22804628018438E
:1013A0000A69EFF3108C72B61368002BFCD0BFF300
:1013B0005F8F8B8823808D800B69BFF35F8F002246
:1013C0001A608CF310880B7801329A40CB68084978
:1013D0008C4663441A6070BD0122DDE70B69BFF3E0
:1013E0005F8F00221A608CF3108801204042F2E7E0
:1013F0003C20000010B543890A1493421ADD5300C3
:101400009B184269DB00D3180469EFF3108C72B6A5
:101410002268002AFCD0BFF35F8F5A88090494B277
:10142000090C8A4208D00369BFF35F8F00221A605B
:101430008CF31088002010BD8022120214435C80BF
:10144000012302698371BFF35F8F002111608CF368
:101450001088044902788C469340C2680120624497
:101460001360E8E73C20000040787047F0B5D646AE
:101470004F464646C0B504000D0082B0EFF3058725
:101480008946002F0ED0344900204B6AAB4203D36B
:101490008A6A0130A24226D302B0E0BCBA46B14605
:1014A000A846F0BD2D4B9846DB689A464346504609
:1014B0001E7800F061F80B00514602000436B600B9
:1014C000715820008E1A2900801A99418F4211DC30
:1014D0000ED020BF204A0020536A4B45DCD3926ACD
:1014E0000130A242D8D25B1B5A1E9341D8B2D3E737
:1014F0008642EED900F048F822002B00121A8B41E8
:10150000002B1ADB00230193154B22000093404669
:101510002B00FFF717FF011E0FDD0F4B5A6A4A45DC
:1015200017D39B6AA34212D34046FFF763FF0A4AD0
:101530000020536A4B45AFD3D1E7074A0020536AD6
:101540004B45A9D3926A0120A242A5D2CBE74A45D6
:10155000EAD120BFE8E7C04600400540A40F0020C4
:101560006911001010B5024A0248FFF7AFF810BD2C
:10157000589300106C1B00200300416A0A00986A0F
:10158000596A8A42FAD17047034B596A0A00986A2D
:10159000596A9142FAD170470040054070B5040085
:1015A0000D00174A536A1900966A536A8B42FAD1A2
:1015B0003000190024184D41AB4216D813D0104A00
:1015C0002B00526A954203D90D494A6A9A42FCD3CC
:1015D0009A4207D10A4A02E0516A994202D1916ABD
:1015E000A142F9D370BDA642E9D9054B5B6A1C0044
:1015F0005A1CEFD0012301246442E5175B42E3E764
:1016000000400540F8B5040006200D0000F078F910
:10161000002844D0374B3849E3185A1E93418022A2
:10162000120494465B429B0D344A9B05634413604D
:10163000334A136018000A689043FBD12D4B314A9E
:10164000E31859424B4180215B0049000620995222
:1016500000F056F92900C00000F062FB0130C30918
:101660001ED1402701226262A362266BF30722D4B7
:10167000E36A254B0620E51800232B60266300F063
:101680003FF93900800000F04BFB7023E26A5A40BA
:101690000E3313402B601D4B23630323A364F8BD5B
:1016A0001B4A93421ED900231A4A1B4F6262A3624F
:1016B000266BF307DCD5194B144AE3181A60656AE8
:1016C000A36A0620AD01ED1800F01AF9144900F0E4
:1016D00027FBAD020100280000F022FB0021FFF7EC
:1016E0005DFFC5E74006800E9F011A003F1803000A
:1016F000B9E7C0460080FCBF08C0004000E00040E1
:1017000000F00040A42300202C1000000103000082
:10171000FEFF0000FFFF0000C0FF3F003030000070
:101720004E0E0000F8B5DE464E4657464546E0B53B
:101730008B4605000A991800160000F0F1FA0A9B82
:101740006C001F02324B64199C46A4006444636819
:1017500081469F4200D967602B1FDBB29846012B60
:1017600030D9C02380229B01E31812011A60294B53
:10177000AD0059599A4600291BD17301E026226811
:1017800053401E40802342465B01E3181E60012A3D
:1017900030D9802380229B01E31812011A6053463E
:1017A0004A4667605A51F0BCBB46B246A946A046BD
:1017B000F8BD586900F0B4FA013043001B18033B30
:1017C000FDD2DAE75B46012BCBD1C02303229B017C
:1017D000E3181A60023AA3681A42FCD07301E026AB
:1017E0002268AD0053401E4080230A4A5B019246A6
:1017F000E3181E605A462168514003220A401A60CD
:1018000001225B469A40A3681A42FCD0C1E7C04659
:1018100000800040701B0020F0B546464F46D6467B
:10182000C0B51F00344B44009C462418A4006444F7
:10183000636888461600FF2B02D880235B00636034
:10184000031FDBB29A46012B30D9C02380229B01B3
:10185000E31812011A60294B85005959994600294D
:101860001BD17301E026226853401E40802352465C
:101870005B01E3181E60012A30D9802380229B017E
:10188000E31812011A6080235B0063604B465F51CE
:10189000E0BCBA46B146A846F0BD586900F040FA2F
:1018A000013043001B18033BFDD2DAE74346012B0E
:1018B000CBD1C02303229B01E3181A60023AA3682C
:1018C0001A42FCD07301E0262268850053401E4076
:1018D00080230A4A5B019146E3181E604246216854
:1018E000514003220A401A60012342469340A268F5
:1018F0001342FCD0C1E7C04600800040701B0020AE
:10190000014B8000C0587047701B0020F8B50400E0
:1019100021481E0017000D0000F002FA01003800F7
:1019200000F0FEF9069B36041B031E432368002BC0
:1019300020DB1A4B1A49E3185A1E93418022920168
:1019400094465B421B0B174A1B0363441360164A01
:1019500013601F000A689743FBD1144B2560E218FF
:101960002123A06013602368002BFCDA0823E660C3
:101970001360F8BD3F2322681340AB42D9D1A3685E
:101980001B051B0D8342D4D1EE22E368D202134023
:10199000B342CED1EDE7C046001BB7000040FDBF0B
:1019A00008C0004000E0004000F0004004300000AB
:1019B00010B580241C4BE4051C6000281AD00123BC
:1019C0001A4C18431A4BDC611A4C44401C62596291
:1019D00098628021144BC90519601748174908609F
:1019E000E021C9041960002A07D18022144B120695
:1019F0001A6010BD0E4BD861EBE753019B1A9B0098
:101A00009A18802312015B049A4209D213000D49EF
:101A10000B60074B5A608022094BD2051A60E8E739
:101A2000094B1A00F3E7C04600B00540D3C007B029
:101A3000008005402D3FF84FFCFF010008200140C9
:101A400000A00540D01F0020FFFFFF008023024AB6
:101A50009B000B43D362704700800540142310B5F0
:101A60000100188804331B88984710BD162310B551
:101A70000100188802331B88984710BDF8B5474607
:101A8000CE4680B50F1E19D01423994604330400A6
:101A90000025012698464B461888434621681B8836
:101AA000984701C4431E9841013540420640AF4269
:101AB000F1D13000C0BCB946B046F8BD0126F8E708
:101AC000142370B50400188804331B880D000549E1
:101AD000984703000020002C01DB0130A0402900C2
:101AE0009847C04655420000AA23064A1B011360CE
:101AF0008D235B00D3600449044B19605368002BAD
:101B0000FCDA70470040024000B0FA00006002407A
:101B10007047C04610B50148FEF7BAFD7C9300102F
:101B200070B5074D074EB54209D20024013E761B21
:101B3000B60808CD984723000134B342F9D170BDEF
:101B40005892001094920010054B064A06491A60FC
:101B5000064A074B1A6010000B689843FBD1704788
:101B600000E00040BFCDFBFE08C00040FE7F3C000F
:101B700000F00040044BDB6C002B03D18022034BB0
:101B8000D2021A607047C046000011504C2011501C
:101B9000044A054B1A60054A1368DB018033FBD108
:101BA0007047C046FFFFFF0100F0004008C0004042
:101BB0004022034B9A675A671A67DA667047C04635
:101BC00000F0014010B5FEF70FFE10BD70B5044DDA
:101BD000044CA968C022200000F0EAFCAC6070BD93
:101BE00000ED00E000000020002310B5294C82B079
:101BF000A367FFF779FF0122274B1A60636C012B63
:101C0000FCD10322254B1A60224A936B012BFCD195
:101C1000013300930121224A22480433FFF776FE64
:101C2000052301210093204A2048FFF76FFE002280
:101C3000022104201E4BFFF7EFFD002201210520A9
:101C40001C4BFFF7E9FD0022002107201A4BFFF78C
:101C5000E3FD002200210820174BFFF7DDFD802364
:101C6000DB000093002200210920134BFFF75AFDEF
:101C70000022104B00210620FFF7CEFD0420FFF7C5
:101C80003FFE0E4900F04CF801000020FFF7DEFE99
:101C900002B010BD008000403CB0004030B00040B9
:101CA000002F685900800240008C864700C0024027
:101CB000001BB70040597307006CDC0240420F0064
:101CC00001480421014B1847C00F00207D1A001065
:101CD000124A936F9B0815D29066D166002905D0F1
:101CE000FFE7FFE7FFE7516F106F704704B58021F2
:101CF0000906C2175140002800D0C84307F07CFAFB
:101D0000002104BDF0B5146E556E576F166FFFF7C6
:101D1000E3FF1466556657671667F0BD000000D0F4
:101D2000114A936F9B0813D210665166002905D0A3
:101D3000FFE7FFE7FFE7516F106F704704B500281A
:101D400001D00020C04307F057FA002104BDC0466F
:101D5000F0B5146E556E576F166FFFF7E5FF1466FA
:101D6000556657671667F0BD000000D094464A4A92
:101D7000926F9208624601D228E0C046F0B5464E06
:101D8000346E756E776F366F00F020F89446424AD5
:101D900014665566576716676246F0BD94463E4A1C
:101DA000926F9208624601D254E0C046F0B53A4EB6
:101DB000346E756E776F366F00F04CF89446364A85
:101DC00014665566576716676246F0BD002B24DB24
:101DD00011D000293EDA00B5C943404200D101319B
:101DE00000F038F8C943404200D10131DB43524290
:101DF00000D1013300BD002AEBD1002801D1002918
:101E000005D00020C90FC90701D1C043410800B562
:101E100007F0EAF90022002300BD00B500290ADB23
:101E2000DB43524200D1013300F014F8C943404271
:101E300000D1013100BDC943404200D10131DB4333
:101E4000524200D1013300F005F8DB43524200D189
:101E5000013300BD002923D1002B18D1002A0CD05A
:101E6000BC460D4F38667A6600210023FFE7FFE786
:101E7000FFE77A6F386F67467047002801D0074840
:101E8000010000B507F0B0F90022002300BD0200F8
:101E90000B00002000217047000000D0FFFFFFFF73
:101EA000002B00D0BFE0130C28D1002AE7D080B46B
:101EB000114F39667A66FFE7FFE730B4040C7B6F99
:101EC000396F1B0423433B667A66FFE7FFE7FFE7B2
:101ED000C04684B27B6F3D6F1B0423433B667A662A
:101EE000FFE7FFE7C04600232C042D0C7A6F386F04
:101EF00000196941B0BC7047000000D0F0B59446AD
:101F00000025140E01D112020835140F01D112015F
:101F10000435940F01D192000235D40F01D1520043
:101F20000135D40B0134254F7C66254C3C660E0CE4
:101F300093B2FFE7FFE7FFE73C6F6643360C77039A
:101F4000BE467343DF0B5B04C01AB941130C7343E5
:101F5000DB18C91ACE086643360CB64493B27343F5
:101F60001F0F1B01C01AB941130C73431F0B1B0534
:101F7000C01AB941860D8F023E436643360C092DC7
:101F800024DB520A7243801A7703460A6643360CF2
:101F900016235B1BDE40DF40BF1964466643821B8D
:101FA0007046043506330100D940A840C01900D35B
:101FB0000131A24206D20023F0BD0000000000D093
:101FC000FFFFFFFF121B0130F3D3F1E709277F1B4F
:101FD000FE406446A2B27243801A00D20139220C3C
:101FE0007243130C1204821A99410B007046043597
:101FF00013370100F940A840801900D30131002BAC
:1020000002D1A2420AD2F0BD013000D30131121B2D
:10201000FAD2013BF8D1A24200D2F0BD013000D388
:102020000131121BF7E7F0B51C0C00D080E00CB4B6
:1020300000251C0A04D11B02160E33431202083578
:102040001C0B04D11B01160F3343120104359C0BEA
:1020500004D19B00960F334392000235DC0B02D172
:1020600092185B4101351C00971864410134464FBA
:102070007C66464C3C660E0CFFE7FFE7FFE7C04678
:102080003C6F6643360C7703BE4697B27743C01B5E
:1020900000D20139C01B00D201399FB27743C91B5E
:1020A000C91B170C77437E04FF0B801BB941CE0878
:1020B0006643360C0C2D33DBB644120B1F053A4336
:1020C0001B0B97B27743C01B00D201399FB27743F5
:1020D000C91B170C77433E043F0C801BB941860D8A
:1020E0008F023E43664329277F1BFE400C3D774607
:1020F000AF40BF1930BCA2B2ABB272437343801A77
:102100009941220C7243130C1204801A9941020067
:102110000B000137001BA941F9D2781E0021F0BD48
:102120000C277F1BFE4077467F0BAF40FF19E0E78F
:1021300000245D1C07D0144F7D663966FFE7FFE77A
:10214000FFE7FFE73C6F95B29EB265436643401BD5
:10215000B141150C1E0C6543664336042F0C3E43FB
:102160002D04401BB141994204D202000B00200013
:102170000021F0BD01D19042F7D3801A994101347A
:102180009942F2D3F6E70000000000D0FFFFFFFF06
:1021900048404140484018B4134B5B68019308BD68
:1021A00018B4114B1B68019308BD94460F4A926FF7
:1021B000920805D2624618B40B4BDB68019308BD48
:1021C0000A4AF0B5146E556E576F166F6246FFF7E8
:1021D000F2FF064A1466556657671667F0BD18B4D5
:1021E000014B9B68019308BDD0110020000000D076
:1021F000FFB550404240504059404B40594000E0EC
:10220000FFB5154F4C00640D03D0BC4204D10C0344
:1022100014D80020090D09055C00640D03D0BC42F0
:1022200004D11C030AD800221B0D1B0501264B40BC
:1022300009D44B4003D58B4200D18242FFBD994265
:10224000FCD19042FFBD0B43DB1803431343F5D091
:10225000C9434918FFBD0000FF07000000B5FFF7A4
:10226000CFFF804100BDC04600B5FFF7C1FF01D9D7
:10227000002000BD012000BD00B5FFF7B9FF80417F
:1022800000BD012040054A00121804D85A00121857
:1022900001D800207047012070470000002100286D
:1022A00005D17047C1174840401AFAD0C90713B585
:1022B000064B1B6898470CBC441CA2401005120B2F
:1022C0000349091B09051943114310BD942200203D
:1022D0001F04000010B54C00620D8023D218DB00F3
:1022E000D21A5B057E2A10DD9E3A13DACC17090359
:1022F000490819435242D140640001341532202A62
:1023000005DAD0400843604310BD002010BD0846E8
:10231000604310BDC80FC018013810BD18B4024B7F
:102320005B6A019308BD0000D011002010B5014880
:10233000FEF7AEF988930010132370B51D78012DB8
:1023400019D014DD1D48FFF791FB06001C48FFF76C
:102350008DFB1C4C80223100200000F029F9022D59
:1023600006D01948FFF77AFB184B186070BD154C62
:10237000174BA364F5E7174B124C23606360A3600F
:10238000E36023616361A361E36123626362A3622B
:10239000E36223636363A363E36323646364A3640B
:1023A000E36423656365A365E36523666366A366EB
:1023B000E36623676367A367E367D9E753440000D5
:1023C00053460000D01100204C330000942200201E
:1023D000D92300102D23001007B5604601880A0A92
:1023E0000230DF2AFAD1C9B2820804D302884088B9
:1023F0000004104300E00068014A5050039007BDFC
:10240000D011002051434343C9188C46110C83B2AC
:102410004B4310B4040C614392B280B25043624308
:102420001C041B0C001910BC59411304120CC018D9
:1024300051416144704700004840414048400E4BC4
:102440005B6818470C4B1B6818470C4A936F9B0836
:1024500002D2094BDB681847F0B5146E556E576F02
:10246000166FFFF7F6FF054A14665566576716673D
:10247000F0BD014B9B68184798220020000000D057
:10248000C10FC90700D54042002817D0F44603B455
:102490000B4B1B68984706BC81409E3840428031F8
:1024A00007D20B0607D04900490AC005104308436C
:1024B00060470130F8E7490A8902F5E770470000F4
:1024C0009422002041000A0E80231B067E2A0BDD89
:1024D0009E3A0BDAC1174002400818435242D040DE
:1024E000490001314843704700207047C00FC018B1
:1024F00001387047C0420DD300B5400040080021AC
:1025000000F00EF8002801D4404200BD80200006F3
:1025100000BD0000014BDB69184700009822002035
:10252000014B5B6A184700009822002010B5014853
:10253000FEF7AEF8E0920010132310B510481C7897
:10254000FFF794FA0100012C0AD003DD80220D4828
:1025500000F02EF80C48FFF781FA0C4B186010BD04
:10256000084C5422200000F023F822000849803251
:102570002368002B00D1216004349442F8D1E9E7AC
:1025800053460000982200204C3300009422002083
:102590002D25001001480421014B1847D00F0020C1
:1025A0007D1A0010014B1B6818470000D00F002057
:1025B000014B5B6818470000D00F00207047C046F1
:1025C000F8B55746DE464E464546E0B599460A9B65
:1025D00007009A460D9B884693460B9C9B073BD170
:1025E0000C9B9C423DD21E1B0B9415000C005E44BC
:1025F0002A004B46013521002020B847B542F7D1CB
:10260000A0460B9C002C20D0454636195346321B61
:10261000013C185D29004B46B847002CF6D12B0031
:10262000350098460D9B9B070FD55B46EC1A0C9B1B
:10263000A3420AD9464698462A004B46310020203C
:102640000134B84701354445F6D32800F0BCBB46F9
:10265000B246A946A046F8BD16001500002CD3D1FD
:10266000E0E71600002CCFD11500EEE7F0B54F469D
:102670004646D646C0B584B098460EAB1B78944605
:102680009946129B0D9C109F119E9A0725D4002EEF
:1026900065D1BC4221D201221A409246202C00D1A1
:1026A000E9E00C9A551E302202E0202C00D17BE09C
:1026B00001342A55A742F8D85246002A0DD0B44218
:1026C0000BD20C9A551E3022202C02D171E0202C06
:1026D0002DD001342A55B442F9D1DA063CD55A0539
:1026E0002ED4002C28D10F9A102A00D1B6E0022A4D
:1026F00000D1BCE030220C9C227001244A46002A02
:1027000065D15A0700D499E02B220C9D2A5501343B
:1027100003930C9B62460093029643460194FFF795
:102720004FFF04B0E0BCBA46B146A846F0BD202435
:10273000DA06EDD55A0503D4A74266D0B44264D078
:102740000F9A102A71D0022A57D0202CE0D02200F4
:10275000013430250C9FBD54202CD9D0CEE7012266
:1027600015001D40AA461A4236D04A46002A4AD1D0
:102770000C321A4247D1BC42A1D2202C91D1202E3A
:1027800017D82024DA06C3D55A051BD4202F01D030
:10279000202ED5D11F220F9D102D6FD0022DD8D104
:1027A00062250C9FBD54D0E75246002A79D0202ED6
:1027B000BDD92024DA06ABD55A0503D4202FE9D0A1
:1027C000202EE7D00F9A102AA2D12024A0E72D2294
:1027D0000C9D2A5501349BE7BC4200D37DE7202C99
:1027E00000D05EE7DA06F0D55A05EED4202F62D08D
:1027F000202EEAD134001F22CDE7202C00D187E71C
:1028000022000134CCE7013EB5E7621E012CC2D1A3
:102810000F9A102A00D06AE79A063BD558220C9CE2
:102820002270283A6270022468E79A060ED4202C9F
:10283000CBD078220C9D2A55013486E71A0700D4A4
:1028400066E720220C9D2A55013461E7202CBCD07C
:1028500058250C9A12191570013476E79A0608D596
:1028600058220C9C227030226270022446E76032AB
:10287000F7E77822F5E7002A83D1B3E7A21E013CEF
:102880009D0603D478250C9FBD5460E758250C9F06
:10289000BD545CE778220C9C2270483A6270022496
:1028A0002CE7DA0600D433E75A058BD4202F00D06A
:1028B00044E71F226FE73C001F226CE710B5002899
:1028C00000D110BD01F068FBFBE7C0460B0010B55E
:1028D000002802D049681B68984710BDF0B55746DC
:1028E0004E464546DE46E0B599B08246894690465A
:1028F0000893229A239B10001900FFF7C2FC0028BE
:1029000000D0CDE0229823990122D94B5242FFF703
:10291000B3FC002800D0C3E0229823990122D54BB4
:102920005242FFF79BFC002800D0B9E0229823997F
:1029300000220023FFF792FC002800D0F1E1229E44
:10294000239F8023269ADB001A400D92269A1A4272
:1029500001D1062324938023269A1B011A403B00B1
:1029600093460996334300D0B3E0002A00D0C2E179
:10297000002300240A930B94002304250993259B2C
:102980000024AB4200D95C1B0223269A1A400C9209
:10299000269A134203D06B426B415B421C40099B59
:1029A000002B07D00A9A0B9B30003900FFF7FDFB84
:1029B00006000F002298239900220023FFF74EFC07
:1029C000002803D0802109067B181F00269AAA4BF5
:1029D000009601971340089E0493249B039402934E
:1029E000424633004946504600F0AAF90400002D43
:1029F00067D02020269A4946024013005A4253418C
:102A00005B42621C18400A92330022004530D047D6
:102A1000099A6F1ED317D4185C40D30F9B4600252C
:102A200001E0202D13D008AA94461F232000634400
:102A30000A2101355E19FFF773F93031317020003A
:102A40000A21FFF76DF926000400092EE9D80523B5
:102A50000693002304930A3303935B46089E029374
:102A600010AB0A9A009349463300504605970195EA
:102A7000FFF7FCFD0C9A0400002A22D04246851A7A
:102A8000259AAA421DD9B046574616002200434651
:102A9000494620200135B8470134AE42F6D810E04F
:102AA000269B42460493259B49460393249B50460C
:102AB0000293229B239C00930194089B00F040F911
:102AC0000400200019B0F0BCBB46B246A946A0469F
:102AD000F0BD6A4B78009C46400D6044FFF7E2FB76
:102AE000674A684BFFF77BFB674A684BFFF758FB69
:102AF000674A3B031B0B1A4304000D0009981100A1
:102B0000644B0022FFF747FB634A644BFFF767FB08
:102B100002000B0020002900FFF742FBFFF7DAFB61
:102B20000990FFF7BFFB5E4A5E4B04000D00FFF704
:102B300056FB00225C4BFFF733FBFFF7CBFB5B4AF6
:102B40005B4B29000C902000FFF749FB04000C9818
:102B50000D00FFF7A7FB574A574BFFF740FB02005A
:102B60000B0020002900FFF716FB04000D000200F7
:102B70000B000A940B95FFF732FB04000D000A9836
:102B80000B9902000B00FFF70BFB00220E900F9138
:102B90004A4B20002900FFF708FB0022484BFFF7B3
:102BA000FFFA02000B0020002900FFF7FEFA0022C6
:102BB000444BFFF7F5FA02000B0020002900FFF755
:102BC000F4FA0A9A0B9B0D0080210400C90500202D
:102BD000FFF7E1FA02000B0020002900FFF7E0FAFE
:102BE00002000B000E980F99FFF7DFFA0022284B26
:102BF000FFF7D6FA344B0C9C9C4664442305002214
:102C0000FFF7EDFA04000D0002000B003000390060
:102C10000A940B95FFF722FB00285DD123002A00C0
:102C2000C625099963318D42AD4159466D4204353F
:102C3000002900D1A3E6134363D030003900234AB2
:102C4000234BFFF711FB002807D00022300039008A
:102C5000204BFFF703FB002853D1249B002B00D10E
:102C60008DE60D9B5A1E9341249AD31A249386E62F
:102C7000FFFFEF7FFFFFEFFFFFF7FFFF01FCFFFF0D
:102C8000FB799F501344D33FB3C8608B288AC63F5B
:102C90000000F03F0000F83F61436F63A787D23F19
:102CA00071A379094F930A400000E03F1655B5BB68
:102CB000B16B0240EF39FAFE422EE63F00002C4095
:102CC0000000244000001840FF0300002D431CEBCF
:102CD000E2361A3F80842E41099B0022013B099372
:102CE0002000164B2900FFF760FA0A0001000300DC
:102CF0000A910B9294E7002300240A930B9400237B
:102D00000993249A099B9A4214DDD31A013B249318
:102D10008023269ADB001A4300230025269209937C
:102D20002DE6802212069446229B1E00239B6344BC
:102D30001F0006E600232493EAE7C0460000244073
:102D4000F0B54546DE464E465746E0B595B08B4653
:102D5000904699461E9A1F9B0A9019001000209DCC
:102D6000FFF78FFA002800D0B0E11E981F990122CA
:102D7000C74B5242FFF772FA002800D037E11E9885
:102D80001F990122C34B5242FFF776FA002800D068
:102D9000A7E01E981F990022BF4BFFF76DFA00288D
:102DA00000D088E01E981F990022BC4BFFF756FA0E
:102DB000002800D07FE01E981F9900220023FFF713
:102DC0004DFA002800D0FAE000230B938023229CC8
:102DD000229ADB001C401A4200D102E1092D00D8E2
:102DE0007CE106A98C462C00172200233021093CE7
:102DF00062440133D154EF1A202B00D132E1A342B7
:102E0000F7D10022A44B069207931E981F99FFF753
:102E100061FA0500FFF746FA02000B001E981F99A1
:102E2000FFF7B9F9069A079BFFF7D9F908900991BE
:102E3000FFF774FA0600FFF731FA02000B0008985A
:102E40000999FFF7A8F90022954B08900991FFF71F
:102E500013FA002800D1D2E001363000FFF71EFA45
:102E6000069A079BFFF700FA002801D000260135DB
:102E7000AA46002F00D098E02800FFF713FA0200BE
:102E80000B001E981F99FFF786F9854B002206005C
:102E90000F00FFF7E3F90CAB9A46002845D100225A
:102EA000300039007E4BFFF7E7F900283DD1EB07F2
:102EB0003BD5013539E0229B42460493219B59467C
:102EC00003930A981E9B1F9C0295009301944B4606
:102ED000FFF704FD15B0F0BCBB46B246A946A046BC
:102EE000F0BD229B5B0767D403226E4B22990192AF
:102EF000039121990291009342464B4659460A9804
:102F0000FFF75EFBE6E706AA944617232800634412
:102F10000A2101341E19FEF7DBFE30312800317022
:102F20000A21FEF7D5FE051E76D0202CEBD1032317
:102F3000229A1340012B1DD1219B002B1AD00B9BF1
:102F4000002B00D0BBE0229A0C33134200D0B6E035
:102F5000219BA34200D887E006AB9C461722302372
:102F6000624404E02199013413558C4259D0202C3D
:102F7000F8D12024229B01940393219B0293534672
:102F8000B9E706AA944617230A21634430000134A6
:102F90001D19FEF7C5FE3031297030000A21013FAE
:102FA000FEF7BEFE092E46D90600202CE9D1554673
:102FB0000CAB20249A46B8E704223B4B96E71E9AB6
:102FC0001F9B00200021FFF7E6F801230B938023CD
:102FD000229C229ADB001E901F911C401A4200D0B6
:102FE000FCE60022314B0627069207930DE7229B51
:102FF0000393219B0293042301932D4B7BE7002233
:1030000008980999264BFFF729F9002800D02FE7E7
:10301000002E4FD101362BE70323229A1340012BB8
:1030200066D0202CA6D00B9B002B1FD02D23524600
:10303000135501349EE75546202CB9D030233A1958
:10304000002F08D0172006A9013409180B55202C91
:10305000AED09442F6D10CAB9A462E23524613556D
:10306000013462E72024CCE6202C83D0229B5B072E
:1030700008D4229B1B0700D47CE72023524613551B
:10308000013477E72B2352461355013472E7C046CB
:10309000FFFFEFFFFFFFEF7F65CDCD4165CDCDC1D8
:1030A0000000E03FE4930010DC93001080842E4188
:1030B000EC930010F30700D4DAE60136D8E6219B42
:1030C000013B2193A34200D946E7AAE7229B039341
:1030D000219B029303230193074B0CE7074BEA0064
:1030E0009B185C681B682F000693079400248CE6ED
:1030F000219B002B95D022E7E8930010D09600107A
:10310000F0B55746DE464E464546E0B5A5B01F0031
:103110002E9B91460D93CA4ACA4B82468B461A6033
:10312000002900D129E2002338789846002800D1F0
:103130002BE2C54B44460C93C44B55464E460E936A
:103140000AE0631C9846220033005946A8474446CB
:103150003878002800D187E001372528F1D10823ED
:103160009A46043B9946023B9846013B00229C4606
:103170000B943878791C0300203BDBB2102B03D86A
:103180000C9C9B00E3589F460300303B0B9C0B922A
:10319000092B3AD9002398462A2800D1DDE00023E4
:1031A0009A462E284BD00300683BDBB2122B1ED868
:1031B0000E9A9B00D3589F4663460F001A43D8E7E8
:1031C00043460F001A43D4E74B460F001A43D0E79B
:1031D00010230F001A43CCE753460F001A43C8E7E9
:1031E00080235B000B9A78781A430B9201310F0011
:1031F00067284FD82428A4D90300253BDBB2422BF3
:103200009FD893499B00CB589F46002398460B9B21
:1032100047469C4600E00131BB00DB195B001F18EC
:103220000878303F0300303B092BF4D963460B93F9
:103230000023B8469A460F0001312E28B3D18020D2
:103240000B9AC00002430B92302252429446787887
:103250000B0084446246092A00D8AAE12A2800D13A
:10326000B9E10F0001319EE7A046AA46B146C84524
:1032700003D301235B424B4498464B464246594692
:103280000020D047200025B0F0BCBB46B246A9467E
:10329000A046F0BD01006939C9B20F2900D950E735
:1032A00001238B409C466B4B994663464A4613402C
:1032B0000F9362464B461A4200D068E10A2956D065
:1032C000072900D03DE70D9B02CB9846002900D08E
:1032D00092E10B9B10211A008A4310001131084320
:1032E000814680201A00C0000240110003421CD118
:1032F00014AB9C461F220F2362440D959C4615007B
:103300000F9B0B9402E0202B0CD0110064460C4064
:1033100020003730092C00D807380133E8540A0957
:103320000F29F0D80B9C0D9D0F934B460822069356
:103330005346059208320392002204930F9B029297
:1033400001931CAB22000093594633002800FFF77D
:103350008DF9434604000D93FAE60D9B04CB90468D
:10336000002A79DB78780D930F00013117E70D9B68
:1033700002CB14930B789C4618005346002B00D1C7
:1033800034E1002815D05346013B013399460D9492
:103390000B9C89444A460B00A14601E0934203D0AE
:1033A0005C780133002CF9D14A465B1A0D9C0B92D4
:1033B0000F938023DB0099460B9A13400D934B46E5
:1033C0001A4204D00F9B534501D953460F93022351
:1033D00099460B9A13400B934B46134200D1F5E1EB
:1033E0006346002B00D1D6E10D9B002B00D182E17A
:1033F0000B1BD14631009A463B00A1442E005F468C
:103400004D4622009B46894609E04B463900541C34
:10341000B0475346185D002800D192E12200954242
:10342000F3D14B465A46A946BB46350017001E004D
:103430004C460B9B002B00D0ADE1149B0D9387E60F
:1034400001310010CC1F0020349500107895001039
:10345000C4950010419000000B9A283802430B924B
:1034600042465242787890460F000D93013196E61D
:1034700078786C2800D15DE180230B9A5B001A43B9
:103480000B920131B3E680239B00ABE67878682885
:1034900000D148E180230B9A01311A430B92A6E632
:1034A000672800D1B2E0472800D11AE1452800D1B1
:1034B0001CE10B9A0721049242460D9B03920733AD
:1034C00052468B43190002920CC9280000920193C6
:1034D0000D91220033005946FFF700FA040037E649
:1034E000462800D18DE00B9A0721049242460D9B9D
:1034F0000392073352468B43190002920CC92800ED
:10350000009201930D91220033005946FFF718FCF9
:1035100004001DE6631C984622003300594625200E
:10352000A847444614E60D9B04330F93631C994649
:103530000B9B9A0700D40AE10D9B2200187859468C
:103540003300A84743464444012B00D86FE1B046FE
:103550002E0025004C46B9465F4622004346013402
:1035600039002020B047AC42F7D12C00BB463500D3
:103570004F4646460F9B0D93EAE5D64B38789A4660
:1035800000239846002800D0D3E500246FE66F287A
:1035900042D000D8FDE11023782800D19BE00B9A9F
:1035A0009A430B920A239C46002314930A330F93E9
:1035B00038E057460B9AB900C919490001330F1872
:1035C0001878303F010030390929F4D9BA460B92F6
:1035D0001F00591CE7E50D9BB87804CB0237D14397
:1035E000C9170A4092460D93791CDCE5002800D1EA
:1035F000DFE602235B42C8E621200B9A0243914694
:1036000076E620230B9A1A430B926CE780230B9AE1
:103610001B011A430B924CE708239C46002314938A
:1036200008330F930B9880230200DB001A4011002F
:103630000200184200D080E00C239A43100080233F
:1036400002009B001A400B92184200D0F1E0802348
:1036500002005B001A4091460D9A043214921842FF
:1036600000D0C3E2430600D5D7E0030600D421E32F
:103670000D9B1B880993002B00D02DE1103398433C
:10368000002900D128E1002399464346059353467B
:1036900004930F9B06900393002302934B460193E0
:1036A0001CAB22000093594633002800FEF7DEFFD2
:1036B0000400C2E6582809D0622800D0E3E20223C1
:1036C0009C460023149302330F93ABE720230B9AFD
:1036D0001A430B92103B9C460023149310330F9314
:1036E000A0E780230B9A1B011A430B9220230B9A0D
:1036F0001A430B92DDE60B1B9A460F9B99463B0043
:1037000037005E469B4622003B003100A8475346E7
:103710000134185D0028F6D14B460F935B46B34643
:103720003E001F0085E6C0230B9AB8781A430B921F
:10373000F91C5CE5C0239B00F6E70D239A431000BB
:103740007DE75B463500BB464E461F0071E64346AB
:10375000012B66D9631E434432002E001D003B003E
:10376000A2465F4691469B4622004B4601343900F3
:103770002020B047AC42F7D15B463500BB464E46F1
:10378000A14654461F000D9B4A46187859463300FF
:103790004444A847EEE60F9BA146984500D84CE666
:1037A0004444E41AB0462E0025004C46B9465F4614
:1037B00022004346013439002020B047AC42F7D103
:1037C0002C00BB4635004F46464636E60F988045EE
:1037D00000D873E24346E218131A32002E001D008F
:1037E0003B0091465F469B460F9122004B460134B9
:1037F00039002020B047AC42F7D15B46BB461F00E2
:1038000043460F9901330F930B7835009C464E4683
:103810006046002800D0E7E50FE60D9B1B78099372
:1038200029E70D9B2200187859463300A8474C46DB
:10383000A0E60D9AFA3BFF3B07329A4301339946C3
:1038400091444B460D931368526815921A4306D162
:103850001032904300220992002900D083E06122B7
:10386000810600D54122D2B20A9214AA91460A9A40
:1038700000210A3A0B9242461792524618925A4633
:10388000B24609911E001F31149B4944BB46169451
:103890001A950024674698468946159D19901B92F3
:1038A0000AE03032D2B24B4601341A55A8454CD00A
:1038B000202C4CD006000D003A00002330002900D7
:1038C000FEF76CFAD2B2092AEBD90B9B9C466244F4
:1038D000D2B2E8E7BD2500106123820600D541235E
:1038E000DBB20A3B0B93434614A91F228C46159367
:1038F00053466244B2460D9417974C468046A946FB
:103900001700099D0F9E169308E03033DBB2013497
:103910003B55B5420ED3202C0CD0050031002800B9
:10392000FEF7FEF9CBB20929EFD90B9A944663440E
:10393000DBB2ECE7159B40469846169B4D46564633
:10394000A1469A460D9C179F9FE6B742B0D9179B98
:1039500056469846189B5F469A461B9B09949B4681
:10396000169C19981A9D43460593534604930F9B42
:103970000690039300230293099B01931CAB220042
:103980000093594633002800FEF770FE0400FFF74D
:10399000DFFB10230B9A9A430F92692800D091E124
:1039A0000B9980230A00DB001A4010000A0019421C
:1039B00003D0112118008A430F920F9A802311001F
:1039C0009B0019408C461A425BD1802311005B009A
:1039D000194089460D9904310B911A4200D0B2E08A
:1039E00013005B0600D4EDE00D9B1B781A00D90F85
:1039F0000D91002B00D1A3E0100014AA944642467A
:103A00001F23159252466344A846BA464D46149465
:103A1000B14604001F00169201E0202D0FD02000B7
:103A20000A21FEF77DF901357E1930313170200011
:103A30000A21FEF775F926000400092EEDD8159B22
:103A40004E46A94645469846169B57469A46149CAC
:103A50000F9B069343460593534604930A2303930F
:103A60000D9B02934B4601931CAB220000935946D9
:103A700033002800FEF7FAFD0B9B04000D93FFF7BF
:103A800067FB07220D9B07339343013294469C4406
:103A900062460D920CCBD90F0B911100194300D146
:103AA0009BE0D917139112915140109113995940ED
:103AB000119110981199129A139B801A99411090A4
:103AC000119114AA944642460023159252469946F3
:103AD000169232001F336344A8464E46BA461494E9
:103AE0001F00109C119D914601E0202E10D0200057
:103AF00029000A220023FEF751F9013630322B004B
:103B0000BA550D0022000400002BEED1092AECD892
:103B1000159B10941195454698464B46169AB1460A
:103B200057461E009246149C0F9B069343460593EE
:103B3000534604930A2303930B9B02934B461CE7C3
:103B4000002885D159E70D9B1B68DA0F1100002B67
:103B500000D1A6E0DA179818504014AA91461F2306
:103B600042464B44A8460D94169704006546B1465C
:103B70001F001491159201E0202D0FD020000A2182
:103B8000FEF7CEF801357E193031317020000A2160
:103B9000FEF7C6F826000400092EEDD8159BAC46AA
:103BA00045469846149B4E4619000D9C169F0F9B48
:103BB0000291069343460593534604930A230393C5
:103BC000634650E713001B066ED50D9B00229B5EDB
:103BD000D9175A184A4092B209E70023994600289B
:103BE000A2D100220023109211936AE70D9B1B685B
:103BF0009946002B03D110339843002938D1612313
:103C0000820600D54123DBB20A3B0D93434616934F
:103C1000534614A91F228C4617932B0062444D462D
:103C2000B246159418978046170099460B9C0F9E34
:103C300008E03033DBB201343B55B5420ED3202CC3
:103C40000CD0050031002800FEF76AF8CBB2092934
:103C5000EFD90D9A94466344DBB2ECE7169B4046DD
:103C60009846179B56464D469A460B94189F159CAE
:103C700043460593534604930F9B069003930023FA
:103C800002930B9B0BE50B9980230A00DB001A4083
:103C900010000A00194200D08BE610239A430F92BD
:103CA0008BE6002883D158E70D9B1B68D9175A185B
:103CB0004A409CE60D9B1B680993DCE4030001333A
:103CC0000F93A5E50B926DE400B585B0039101213A
:103CD00002900093034813004A4202A9FFF710FA2A
:103CE00005B000BDCD28001010B5094A03001468C6
:103CF00084B0002C08D0012200910648524203A94A
:103D0000A047012004B010BD00F092F90020F9E7AF
:103D1000CC1F0020BD28001000BEFDE710B5FFF746
:103D2000FBFFC04670B5FDF7FBFE074D074EB542E1
:103D300009D20024013E761BB60808CD984723001F
:103D40000134B342F9D170BD94920010A4920010D6
:103D5000030010B5080011001B68984710BDC0464D
:103D6000F0B5C64600B5437D07000D001600002BD8
:103D700038D0002A2EDD00216A1E90466A5C037D41
:103D80004C1C00200A2A0CD0A64216D043461B5DCC
:103D900021000D3B5A4253416A5CDBB24C1C0A2A9B
:103DA000F2D1002BF0D1884217DB022110483B688A
:103DB0009847A64207D02000E8E7864203DD311A83
:103DC0003B6828189847AD19013D2B780D3B5A42A6
:103DD00053413B7580BCB846F0BD091A3B682818B2
:103DE0009847E2E70368110028009847F2E7C046C9
:103DF00020970010F0B5C6460B6806000C0000B511
:103E0000802B06D05A1C2260E418267180BCB8466C
:103E1000F0BD0F4B1D68002D16D00B1D98460D4FA1
:103E200002E02D69002D0FD02B68002BF9D03B68E4
:103E3000002B01D0AB42F4D1280041462268FFF7A5
:103E40008FFF2D69002DEFD101220023DBE7C04653
:103E5000C01B0020C81B0020F0B5DE4657464E466A
:103E60004546E0B585B017001C0006000D00FDF7C3
:103E70008BFB0023314A12184B41802109068B42EB
:103E800002D301222E4B52422E4908008A4605F0E9
:103E9000CBF901906B1C03D1300005F0F1F805005F
:103EA000002C26D0284B9846284B1C68002C15D097
:103EB000002F21D1264F02E02469002C0ED0236868
:103EC000002BF9D03B68002B01D09C42F4D120009C
:103ED0002A003100C0472469002CF0D1019B002B3F
:103EE00028D1280005B0F0BCBB46B246A946A04682
:103EF000F0BD184B9846D7E7154B994602ABDF1D2E
:103F00000A239B4602E02469002CE7D02368002B9B
:103F1000F9D04B461B68002B01D0A342F3D12A00F5
:103F200031002000C0475B460122390020003B7071
:103F3000C047E8E7504605F047F9D2E740420F0096
:103F4000FFFFFF7F3C100020613D0010C01B0020E0
:103F5000C81B0020513D00100A4A1368002B05D1F0
:103F60000CE01A001B691032002B07D09842F8D1E0
:103F7000002902D103691360016170470029FCD058
:103F80001060FAE7C01B002010B500F0B3F902F092
:103F900099FF012010BDC046F0B5CE46474680B51A
:103FA00083B06B460600DD1D2870FDF7EDFA002397
:103FB0001A4A12184B41802109068B4202D3012272
:103FC000174B524217490800884605F02DF9164B49
:103FD00081461C68002C14D0144F02E02469002C88
:103FE0000FD02368002BF9D03B68002B01D09C42F6
:103FF000F4D1200001222900FFF7B2FE2469002C31
:10400000EFD14B46002B05D1300003B0C0BCB94600
:10401000B046F0BD404605F0D7F8F5E740420F0046
:10402000FFFFFF7F3C100020C01B0020C81B0020AA
:1040300070B5040005F024F80123010005000122F9
:104040002000FFF709FF084B1C68002C06D06368AE
:10405000002B05D098472469002CF8D1280070BDAA
:104060002469002CF3D1F9E7C01B0020F0B5CE463F
:10407000474680B5A3B004000D00FDF785FA002384
:10408000294A12184B41802109068B4202D3012292
:10409000264B5242264F380005F0C6F80023060092
:1040A000019322002B00234801A9FFF70DFE019B7D
:1040B0008046002B14D1204B1C68002C06D063686E
:1040C000002B0BD098472469002CF8D1002E25D165
:1040D000404623B0C0BCB946B046F0BD2469ECE709
:1040E000154B1D689946002D1CD0144C02E02D691B
:1040F000002D0FD02B68002BF9D02368002B01D0A6
:10410000AB42F4D12800019A02A9FFF729FE2D69DC
:10411000002DEFD14B4601951C68CEE7380005F025
:1041200053F8D5E70195D1E740420F00FFFFFF7F2D
:104130003C100020F53D0010C01B0020C81B0020D3
:104140000FB400B583B004A901C90191FFF78EFF38
:1041500003B008BC04B01847F0B5002915DD0E4BBC
:104160000D271A680D4B0E4CD3185D426B41451854
:1041700020215B001E5F0478A64207D09369194294
:10418000FCD101301460A842F5D1F0BD9369194209
:10419000FCD11760F2E7C046A82300200080FCBFD6
:1041A000A4230020204B70B504000D1E1E682ADDDC
:1041B000002010211D4B013C1A689369194214D14B
:1041C000013093691942FCD1136823548542F4D11C
:1041D000002E08D050239363516B183B0B401449B9
:1041E0008C466244136028000CE0002E08D0502357
:1041F0009363516B183B0B400D498C46624413602E
:1042000000280DD070BD002E0AD05022074B1B682D
:104210009A63596B183A0A4005498C4663441A6000
:1042200003204042EEE7C046581B0020A823002090
:1042300034100000064B10B51B68002B06D000217F
:10424000044A12689163044A1068984710BDC0463A
:10425000581B0020A8230020601B00200822034BCD
:1042600019688B691A42FCD17047C046A823002008
:10427000F8B51A4F1A4B3A680500D3185842434113
:10428000184E14331C003368002D02D0002B0FD0C1
:10429000F8BD002BFCD0002120009563FCF7C4FA88
:1042A00020001149FCF71CFC104B35601D60EFE746
:1042B0000E4B200019600C493560FCF7EDFA012126
:1042C0002000FCF7B1FA50223B689A63596B183A08
:1042D0000A4007498C4663441A60D9E7A8230020A6
:1042E0000080FCBF581B002035420010601B0020DE
:1042F000341000000D4B10B51B780D4B0D4C1B7886
:104300000D4B02211B780D4B00202360FCF76CF94C
:1043100002210120FCF768F9E12120684902FDF73C
:1043200071F901210648FFF717FE10BDF099001042
:10433000EC990010A8230020E899001000400340E9
:10434000E00F00200000000000000000000000005E
:104350000B4A13681868203080F30988022080F324
:104360001488BFF36F8F3FBCAE4608BC04BC62B676
:104370001847C046C046C046C046C046C046C046B4
:10438000F41F0020000000000000000000000000FA
:10439000EFF30980164B1A6820381060F0C04446CD
:1043A0004D4656465F46F0C00D221207146E556EFC
:1043B000566F176F3038F0C008B572B601F0F4FBD5
:1043C00062B60CBC116808681030F0C8A046A94657
:1043D000B246BB4680F309880D2212073038F0C878
:1043E0001466556656671767F0C81847C046C0463A
:1043F000F41F002010B5FCF763F9C046D02300B5C8
:104400001B061A6D83B0D20704D501219A6D1A6D6F
:104410001142FBD1D023FF221B061A650023114A4B
:1044200001931168EFF3108C72B60B68002BFCD06F
:10443000BFF35F8F00230C48126801680360BFF36D
:104440005F8F13608CF31088084B01AA186800F086
:10445000D3FA019B002B03D08022054B52051A6032
:1044600003B000BDF01F0020C42302202C24022032
:1044700004ED00E07047C04610B58024031F6404BB
:104480001C60043B19600349043B1960143B40382D
:104490001A6010BDF54300108022044B52051A60CB
:1044A000BFF34F8FBFF36F8F7047C04604ED00E03E
:1044B00072B6044A136801331360BFF34F8FBFF322
:1044C0006F8F7047C0230220034A1368013B1360BB
:1044D000002B00D162B67047C0230220EFF310809A
:1044E00072B6704780F310887047C04610B5FFF76A
:1044F000F5FF040001F046FB002803D08022034BA7
:1045000052051A602000FFF7EDFF10BD04ED00E03A
:10451000002310B5084A094C052023601360FDF7FD
:10452000EFF9FA218900FDF7FBFB054B0138186014
:104530000723236010BDC04618E000E010E000E053
:1045400014E000E0FF221F4B1204196810B50A4363
:104550001A60FF22196812060A431A601A490E20CF
:1045600002F092F819490F2002F08EF818490B203A
:1045700002F08AF8FFF7CCFF0022164B1A60D02316
:104580001B06154A1C681470FF221A651A6DD207A3
:1045900004D501219A6D1A6D1142FBD10F34FF2110
:1045A0002000FCF787FB20000C49FCF775F901217E
:1045B0002000FCF739F9FFF7CBFE01F0F5FAFCF724
:1045C0007FF8C04620ED00E091430010ED4400105C
:1045D00075440010C0230220F80F0020FD43001096
:1045E000D02310B51B061868074B1B78834200D0F8
:1045F00010BDEFF30583002B02D05B00C018F7E776
:1046000001F038FDF4E7C046F80F00200A002C49FD
:1046100030B58C46036883B063449C105C2B00D992
:10462000183C0121274BA1401C78D0231B061B6896
:104630009C421FD040BF244D03682C68A34234D055
:104640002368002BFCD0BFF35F8F204C23680B4303
:1046500023602B68BFF35F8F002119600368D020AF
:10466000002100064165BFF35F8F196082F3108857
:1046700003B030BD40BF0368BFF35F8F00201860F8
:1046800082F31088EFF30583DBB2002B12D0104BBE
:10469000019001AA186800F0AFF9019B002BE7D048
:1046A00080220C4B52051A60E2E7084C2068084350
:1046B0002060D4E7064B186800F050F9D8E7C046F0
:1046C00000FFFF2FF80F0020F01F0020C42302205E
:1046D0002C24022004ED00E0F0B5CE46474680B51C
:1046E0001D00364B14001A78D0231B061B68804629
:1046F000894683B09A420FD00368BFF35F8F0022D0
:104700001A6081F3108820002900FCF7AFFE03B087
:10471000C0BCB946B046F0BDFCF736FF26002F00FE
:104720000123361A8F41264A5B42B6185F41002F9B
:1047300020DC1BD043461B68BFF35F8F00221A604A
:1047400089F310881F4B5A6A954205D89B6A01204D
:10475000A342DCD29542DAD180221B4B52051A606B
:10476000BFF34F8FBFF36F8F0020D0E7FA239B007A
:104770009E42DFD3FA220023300039009200FDF779
:10478000F5FA031ED6D042461268BFF35F8F0021B0
:10479000116089F310880D4A0D49106842468C4615
:1047A0001268624496105C2A00D9183E01210093D9
:1047B000B1400023012200F075F8C3E7F80F002094
:1047C00018FCFFFF0040054004ED00E02C2402200F
:1047D00000FFFF2F10B5FBF7E9FF054A054B944694
:1047E00060448000186000F051F8034B186010BD61
:1047F00040000034F01F00202C240220F8B5DE46D3
:1048000057464E464546E0B505000F00060001F04C
:104810009FF829682C6939430C362960A6422CD0B0
:10482000002398468023DB049B4680235B049A4642
:1048300080239B0499460FE06746002F0AD0574615
:104840003A4202D042461A4390464B46194301F081
:104850007BFB2968A6420ED020000F000268646826
:1048600013021B0A1F40BC465F463A42E4D0634530
:10487000E5D0A642F0D143469943296001F070F893
:10488000F0BCBB46B246A946A046F8BD10B51C20F8
:1048900001F01EFF041E03D0002308C000F0B8F88A
:1048A000200010BDF0B5C646060000B50D009046CC
:1048B0001F0001F04DF83468002F13D125420BD0B2
:1048C0004346002B0BD02300AB43336001F048F884
:1048D000200080BCB846F0BD069B002B21D101F022
:1048E0003FF8F5E72B0023409D42E9D0069B002BC3
:1048F000F5D0434680215A1E9341C9041B06194333
:10490000069A2943301D01F0DDF901F029F800284D
:104910001CD001F06FFC0400830107D52402240A97
:10492000D6E741464B1E99410906E9E7FFF7C0FD6E
:104930003468002F0DD12C4205D04346002B02D005
:104940002300AB433360FFF7BFFDE7E7FFF7A4FDAC
:10495000DFE723002B409D42F5D1EEE7F0B5DE46C0
:1049600057464E4645460400E0B583B00D000600AC
:10497000019000F0EDFF2200136824690C361D43FE
:1049800037001560A6422BD0002399468023DB0414
:10499000984680235B049B4680239B049A460FE045
:1049A00000290BD059460A4202D04A461A43914682
:1049B0005146294301F0C8FA019B1D68A7420DD05A
:1049C0002000290046460268646813021B0A194049
:1049D0003242E5D08B42E5D0A742F1D14B469D4310
:1049E000019B1D6000F0BCFF280003B0F0BCBB467B
:1049F000B246A946A046F0BD10B5044C13000A000B
:104A00000100200001F02CFE10BDC046FD47001043
:104A10000300083301224360C36003610023524254
:104A2000826003607047C046002303617047C04640
:104A3000030030B50D6808336A1C0DD01C005B689C
:104A40001A68AA42FAD94B60996003688C600133F6
:104A500061600861036030BD04696368F3E7C046C4
:104A60000369416882688A6051605968814205D053
:104A70000022026118680138186070475A60F7E731
:104A8000F0B5DE464E4657464546E0B585B00600D1
:104A9000FFF70EFD4523F45C64B2002C21DD213BC1
:104AA000994621339A46B14409E0AA6BEB6B039611
:104AB0009A4245D3013CE3B264B2002B11D0B56CED
:104AC000002DF2D1736A002B0BD0484601F0D6F9C5
:104AD0000028EFD001F0C8FA013CE3B264B2002B29
:104AE000EDD14523FF22F254FFF7EEFCFFF7E0FC87
:104AF00044233500F45C103564B2002C05DC13E06F
:104B0000013CE2B264B2002A0ED03369002B0BD014
:104B1000280001F0B3F90028F2D0013C01F0A4FA1A
:104B2000E2B264B2002AF0D14423FF22F254FFF72C
:104B3000CBFC05B0F0BCBB46B246A946A046F0BDD2
:104B400053462A6CEF5CAB6B7FB29846002A16D1B5
:104B500001239C462B68E0449B46002B2BD0434608
:104B6000AB637B1C1DD16B6A002BA3D028002430C3
:104B700001F084F900289DD001F076FAACE703A992
:104B80006868FDF715FD41466B682A6C01319B187A
:104B9000AA686B60934201D32B686B60A9637B1C8E
:104BA000E1D000F0E9FFB84200D883E745230137A0
:104BB0007FB2EF547EE7A86801F0ACFA5B46AB60C9
:104BC00043460190AB637B1C09D16B6A002B0FD16C
:104BD000019B002B00D16DE701F046FA7CE700F065
:104BE000CBFFB842F4D9534601377FB2EF54EFE719
:104BF0002800243001F042F90028E9D06AE7C046D5
:104C0000F0B5C64600B5846C82B0A26BE36B00259C
:104C100001909A4204D3280002B080BCB846F0BD8F
:104C20004523226CE65CA76B76B2002A1CD0606834
:104C300001A9FDF7BDFC6368226C9B18A268636044
:104C4000934201D32368636000250137A763731C77
:104C500015D1636A002BDED02000243001F00EF95C
:104C60000028D8D00125D6E723689846002BEBD141
:104C7000A06801F04FFA43460500A360E5E700F0A5
:104C80007BFF8642C7D24523013676B2E654C2E79F
:104C9000F8B505000E001700002841D0030C0A0CDF
:104CA000002B42D1002A30D1300068430300553335
:104CB00036D8543001F00CFD041E31D00300002E14
:104CC00031D12360E5632664FFF7F2FB216CE36BCF
:104CD00022684B43D0185B1A6260D218E260FF234F
:104CE00000254422A0602000A563A3540132A354F0
:104CF0001030FFF78DFE20002430FFF789FEFFF70C
:104D0000E3FB5023E754A5640BE0131CA9B2B2B235
:104D10004A4380B29BB24343120C9B181B0CC3D076
:104D200000242000F8BD5433CBE7002AF8D1301C12
:104D3000ECE7C046F0B5CE46474680B585B00400E6
:104D4000884699460192022B00D19DE0FFF7B0FB07
:104D5000A36BE26B0027442500269A4232D8019BC0
:104D6000002B64D0002F5ED0FFF7AEFB00F0F0FD0B
:104D7000FFF79EFB635D5BB2013300D166554523AF
:104D8000E25C52B2013200D1E654FFF79DFB01A96B
:104D900002A801F02FF9002800D06FE0FFF788FB90
:104DA000A26BE36B9A422CD0FFF78EFB2000FFF73B
:104DB00067FE00F0D5FD0127FFF77AFBA36BE26BDE
:104DC0009A42CCD9226CA66BA56B002A37D12368F6
:104DD00000209846002B00D184E0A36C0135A56328
:104DE000002B00D170E04B46022B01D1002E04D1E4
:104DF0002000FFF705FF00283DD1FFF765FB0120EC
:104E000018E0FFF761FB20000199103000F00AFF65
:104E10002000FFF735FE00F0A3FD0028CBD1FFF7FF
:104E20003BFB0127C8E702A801F0D8F89CE7FFF791
:104E30004BFB002005B0C0BCB946B046F0BD4B46A8
:104E4000002B29D141466068FDF7B2FB6368226CF4
:104E500001359B18A268636093423BD2A36CA563A3
:104E6000002BC5D1636A002BC7D02000243001F08D
:104E700005F80028C1D0FFF70FFBBEE72000FFF7C1
:104E8000FFFD00F06DFDD4E7FFF712FB226CA36B72
:104E9000A66BA56B002A9AD04146E068FDF788FB17
:104EA000226CE36851429B1A2268E360934202D26B
:104EB000A3685B18E3604A46A36C022A18D0013548
:104EC000A563002B94D1CDE7636A002BCDD10028D8
:104ED000D1D192E72368A5636360A36C002B00D057
:104EE00086E7BFE7A06801F015F94346A36074E7C1
:104EF000002D04D0A563002B00D077E7B2E7012294
:104F0000A263002B00D071E7ACE7C04670B5060085
:104F1000542001F0DDFB041E2CD00025012300608D
:104F2000C3630564FFF7C4FA216CE36B22684B434B
:104F3000D0185B1A6260D218E260FF234422A0609E
:104F40002000A563A3540132A3541030FFF760FD85
:104F500020002430FFF75CFDFFF7B6FA5023002253
:104F6000E654002100232000A564A5602560E560CB
:104F7000FFF7E0FE200070BDF8B54E46DE4657460E
:104F800045460400E0B591461D000F00FFF7A6FA64
:104F9000A26BE36B06009A422DD300239846022DA4
:104FA00009D03000FFF79EFA4046F0BCBB46B2463F
:104FB000A946A046F8BD4533E35C226C5BB2984637
:104FC000A36B9B46A36B9A46002A3BD157462368A6
:104FD00001379A46002B63D04346A763013327D19C
:104FE000A36C002B42D0022D4AD15B46002B47D048
:104FF00001239846D5E74523E35C226C5BB29846D3
:10500000A36B9B46A36B9A46002ADFD0002D19D1D3
:10501000390057466068FDF7CBFA6368226C0137A8
:105020009B18A26863609342D6D323686360D3E77A
:1050300000F0A2FD8045DBD24346452201335BB23E
:10504000A354D5E73900E068FDF7B2FA226CE368B3
:1050500051429B1A2268E360934202D2A3685B1814
:10506000E3605746022D17D00137B5E7636A002B7E
:10507000BED02000243000F001FF002805D1B7E7A2
:105080002000FFF7BDFD0028B2D04B46002BAFD06B
:1050900001234A461360ABE7002F9DD101379BE700
:1050A000A06801F037F85346A36095E7F0B547468E
:1050B000CE46040080B585B088460192FFF7F8F926
:1050C000A76B002F5ED1019B002B3BD002A800F004
:1050D00085FF0023442699464525FFF7F5F900F0A2
:1050E00037FCFFF7E5F9A35D5BB2013301D14B4615
:1050F000A355635D5BB2013301D14B466355FFF7A6
:10510000E3F901A902A800F075FF002822D1FFF7FA
:10511000CFF9A36B002B2AD1FFF7D6F92000019914
:10512000243000F07FFD2000FFF7AAFC00F018FCFF
:10513000002824D0FFF7BCF9A76B002F22D1019BD8
:10514000002BCAD1FFF7C0F9002005B0C0BCB9469A
:10515000B046F0BD2000FFF793FC00F001FCFFF724
:10516000A7F9A36B002BEDD0FFF7AEF9E2E7FFF74D
:10517000ABF92000FFF784FC00F0F2FBDAE7FFF761
:105180008BF9D7E7226C002A08D0E168A368891858
:10519000E16099420BD24046FDF70AFA7B1EA363F9
:1051A0002369002B06D1FFF78FF90120CDE7216895
:1051B000E160F0E72000103000F060FE0028F2D03F
:1051C000FFF76AF9EFE7C046F0B5C64600230400D2
:1051D00000B584B098460191FFF76AF9A36B0027E8
:1051E00044250026002B3AD1019B002B00D16FE013
:1051F000002F54D0FFF768F900F0AAFBFFF758F929
:10520000635D5BB2013300D166554522A35C5BB29E
:10521000013300D1A654FFF757F901A902A800F005
:10522000E9FE002827D1FFF743F9A36B002B3ED1FD
:10523000FFF74AF92368002B56D02000019924304B
:1052400000F0F0FC2000FFF71BFC00F089FB0028B9
:1052500041D00127FFF72CF9A36B002BC4D0013BF1
:10526000A3632368002B51D02369002B45D1FFF79E
:105270002BF901200FE02000FFF702FC00F070FB8B
:10528000FFF716F9A36B002B0DD1FFF71DF943466D
:10529000002B15D1002004B080BCB846F0BD02A898
:1052A00000F09CFEA6E7FFF70FF90127D2E7FFF712
:1052B0000BF92000FFF7E4FB012700F051FBC9E7E1
:1052C000FFF7F6F8616A002909D1A06800F054FFE1
:1052D000FFF7FAF8DEE7FFF7DFF80127BAE720214A
:1052E000236B1B68C91AF0E7FFF7E2F8A06800F02B
:1052F000C7FE8046FFF7E8F89FE72000103000F077
:10530000BDFD0028B3D0FFF7C7F8B0E700F07EFF7F
:10531000A060A9E710B5002933D0424B5A689042EB
:1053200000D173E01A68002A2CD0DA68904200D1CC
:1053300076E09A68002A3ED05A69904200D16DE02A
:105340001A69002A3DD0DA69904261D09A69002A30
:105350003DD05A6A904242D01A6A002A43D0DA6A93
:10536000904257D09A6A002A43D05A6B904253D049
:105370001A6B002A43D0DA6B904245D09A6B002A10
:105380002AD010BDDA6890424AD05A69904245D07E
:105390001A00DC69A0423BD05C6AA0421FD0DC6AE4
:1053A000A04237D05C6BA04236D0DC6BA0422BD041
:1053B00011605060E5E75A6990422FD01A00083218
:1053C000E7E7DA69904223D01A001032E4E75A6A1C
:1053D000904204D0144AE2E738331A00E8E7042286
:1053E000D2009A18E4E7DA6A904213D01A00203209
:1053F000D8E75A6B90420FD01A002832D5E71A002E
:10540000DC6B3032A042D3D10722E9E70022E7E784
:105410000322E5E70522E3E70622E1E70222DFE7D0
:105420000122DDE7D0120020E812002070B5040050
:1054300016000D00FFF73CF84422A35C5BB2013379
:1054400001D10023A3544522A35C5BB2013301D1F7
:105450000023A354FFF738F8A36B002B03D02000E0
:10546000FFF70EFB70BD200032002900243000F051
:105470008BFCF4E7F0B5C64600B50400FFF718F85A
:10548000384A394F1368013313603B68002B35D01D
:10549000364BE26A98461B68002B29D0344E3549BA
:1054A0000B6801330B606364334B1968914200D27F
:1054B0001A6093009B189B00F1184A689068A260DC
:1054C00084466546E060201D68609060F258616126
:1054D0000132F250FEF7F8FF43461B68002B04D060
:1054E0003B68DA6AE36A9A4211D380BCB846F0BDE1
:1054F0003B68DB6A9342D1D83C60CFE73C601368DD
:10550000012B07D0194BE26A9846194EC7E7FEF700
:10551000C3FFEAE7A023164E9B0098463500B0442F
:1055200028001435FFF774FA4545F9D1134B984616
:105530001800FFF76DFA124D2800FFF769FA1148BD
:10554000FFF766FA1048FFF763FA1048FFF760FAB2
:1055500042460F4B1A600F4BE26A1D60034B9846A0
:105560009DE7C046C8230220F41F00206C240220BF
:105570000C200020D4230220D8230220042402205F
:105580001824022054240220902402207C2402208B
:10559000FC1F002004200020F8B5CE4647469600A8
:1055A00080B5804630000D00994601F091F8071E45
:1055B00000D187E0702001F08BF8041E00D17EE05E
:1055C00070220021FCF7EEFF3200A521380027638E
:1055D000FCF7E8FF236B043E9E1907239E43002D32
:1055E0004BD034222B78A354002B43D06B7801325C
:1055F000A354002B3ED0AB780132A354002B39D0FA
:10560000EB780132A354002B34D02B790132A35410
:10561000002B2FD06B790132A354002B2AD0AB7909
:105620000132A354002B25D0EB790132A354002B77
:1056300020D02B7A0132A354002B1BD06B7A01327D
:10564000A354002B16D0AB7A0132A354002B11D0F7
:10565000EB7A0132A354002B0CD02B7B0132A354E4
:10566000002B07D06B7B0132A354002B02D04223C6
:10567000AA7BE25443230022E254089D1F2D1CD82C
:10568000201DE562E564FFF7CFF920001830FFF731
:10569000CBF920235B1BA3614A46414630002461BD
:1056A0006462FEF7E9FE099B2060002B00D01C60BD
:1056B0002000C0BCB946B046F8BD1F25E0E7380061
:1056C00001F098F80024F3E7F0B5C646124B00B598
:1056D0009846124D124F134E14E0FEF7E9FEFB6898
:1056E000DC68201DFFF7BCF93368013B33602B6891
:1056F000013B2B60FEF7E8FE206B01F07BF82000F9
:1057000001F078F82B68002BE7D143461B68012B8A
:10571000F8D9FEF7C1FEF5E70C200020CC230220CB
:1057200090240220C8230220F0B5DE4657464E469C
:105730004546584BE0B51A6883B0013294461A606A
:10574000002A5ED0544B1A6894456ED3534A904653
:1057500012681268002A00D195E000220092504A97
:10576000504D9346002291464F4A0193924636E0AF
:10577000494659611168013911609A6A002A0DD0B1
:10578000D969186A566888604160190018318E42DC
:105790006FD0494699621168013911605246D96A41
:1057A0001268914201D9524611608A005218920043
:1057B000AE18706887689860DF607C6084605E61A6
:1057C000AB580133AB505B461B68DB6A994201D989
:1057D0000123009343461B681B68002B4ED04346B1
:1057E0001B68DB68DB685A68944544D35A6998683B
:1057F000D9681C1D816048605068A042B8D15160D2
:10580000B6E7264B294A19681068186011602849C4
:105810000A6801320A601A681268002A23D11E4BF6
:10582000013A1A601A68944590D2002300931C4BE9
:105830001C4D9B465B461B68DA6A93009B189B00D5
:10584000EB58012B01D9012300931A4B1B68002B45
:1058500001D001230093009803B0F0BCBB46B246D0
:10586000A946A046F0BD1B68DB681A680A4B1A609F
:1058700069E750608DE7019B1A60DBE7019B01221D
:1058800052421A60D6E700220092054A054D93461F
:10589000F5E7C046A424022040240220FC1F00207B
:1058A000F41F00200C200020D82302200420002018
:1058B00044240220B024022010B582B0059C01943B
:1058C000049C0094FFF768FE002804D0FFF7D2FD87
:1058D000012002B010BD01204042FAE710B586B0A9
:1058E0001022002102A8FCF75DFE00248022114B4B
:1058F00011480293114B009401935200002302A916
:10590000FFF74AFE002805D0FFF7B4FD00F062FE65
:10591000012803D00A4B1B6806B010BD72B60122E5
:10592000084B52421A60084B1860084B1C60FEF787
:1059300009FEEFE749444C45C956001034240220C3
:1059400040970010402402206C240220A42402204E
:10595000024A1368013313607047C046D023022007
:10596000F0B5DE4657464E464546E0B583B0FEF7F5
:105970009FFD534C2368013B23602368002B00D01C
:1059800081E0504B1B68002B7DD04F4B9C461B6821
:10599000002B00D190E04D4B4D4D98464D4B01945E
:1059A00099464D4B9A4600239B466346DB68DB686D
:1059B000D869196A9A6A8160486018005668183078
:1059C000864200D172E0594699621168013911602E
:1059D0005A699868D968566881604860181D86427F
:1059E00062D01168013911604146DA6A09688A4259
:1059F00001D941460A60910089188C002E197168FE
:105A00008F689960DF60786088605E612B59013330
:105A10002B514B461B68DB6A9A423FD95346012201
:105A20001A6063461B68002BBFD12C4B019C1A687F
:105A30001268002A3CD01B68DB681A68284B1A6081
:105A4000284E3568002D14D0012708E0FFF76CFEC2
:105A5000002801D053461F60013D002D08D0236867
:105A6000002BF3D03368013D01333360002DF6D1B4
:105A7000356053461B68002B05D0164B01241B686C
:105A8000FEF70AFD00E00024FEF71EFD200003B033
:105A9000F0BCBB46B246A946A046F0BD63461B68B3
:105AA000002B00D081E7C0E751609AE751608AE798
:105AB0000B4B013A1A60C3E7074B9A46C0E7C04652
:105AC000D0230220C823022054240220D8230220FD
:105AD0000C200020F41F0020B0240220FC1F002016
